:020000040800F2
:1000000000C0002011570008053100080731000822
:10001000093100080B3100080D3100080000000014
:100020000000000000000000000000000F31000888
:1000300011310008000000001331000815310008DC
:1000400059570008595700085957000859570008D0
:1000500059570008595700081D3100085957000822
:1000600059570008595700085957000859570008B0
:1000700059570008293100085957000859570008F6
:1000800039310008595700085957000859570008D6
:100090005957000859570008595700085957000880
:1000A0005957000859570008595700085957000870
:1000B0005957000859570008493100085957000896
:1000C0005957000859570008595700085957000850
:1000D000595700085957000859310008693100087C
:1000E0005957000859570008595700085957000830
:1000F0005957000859570008595700085957000820
:100100005957000859570008793100085957000815
:1001100059570008595700088931000899310008DB
:100120005957000859570008A931000859570008C5
:1001300000000000000000000000000000000000BF
:1001400000000000000000000000000000000000AF
:10015000000000000000000000000000000000009F
:10016000000000000000000000000000000000008F
:10017000000000000000000000000000000000007F
:10018000000000000000000000000000000000006F
:10019000000000000000000000000000000000005F
:1001A000000000000000000000000000000000004F
:1001B000000000000000000000000000000000003F
:1001C000000000000000000000000000000000002F
:1001D000000000000000000000000000000000001F
:0401E0005FF8E0F1F3
:1001E80010B5054C237833B9044B13B10448AFF369
:1001F80000800123237010BDE409002000000000E6
:10020800683D010808B5034B1BB103490348AFF328
:10021800008008BD00000000E8090020683D0108D2
:1002280081F0004102E000BF83F0004330B54FEA9F
:1002380041044FEA430594EA050F08BF90EA020F0C
:100248001FBF54EA000C55EA020C7FEA645C7FEA9F
:10025800655C00F0E2804FEA5454D4EB5555B8BFC2
:100268006D420CDD2C4480EA020281EA030382EA33
:10027800000083EA010180EA020281EA0303362DC5
:1002880088BF30BD11F0004F4FEA01314FF4801C98
:100298004CEA113102D0404261EB410113F0004FAA
:1002A8004FEA03334CEA133302D0524263EB430361
:1002B80094EA050F00F0A780A4F10104D5F1200EFF
:1002C8000DDB02FA0EFC22FA05F2801841F100015A
:1002D80003FA0EF2801843FA05F359410EE0A5F12E
:1002E80020050EF1200E012A03FA0EFC28BF4CF05F
:1002F800020C43FA05F3C01851EBE37101F0004515
:1003080007D54FF0000EDCF1000C7EEB00006EEB21
:100318000101B1F5801F1BD3B1F5001F0CD34908AB
:100328005FEA30004FEA3C0C04F101044FEA445202
:1003380012F5800F80F09A80BCF1004F08BF5FEA89
:10034800500C50F1000041EB045141EA050130BD69
:100358005FEA4C0C404141EB0101013C28BFB1F57B
:10036800801FE9D291F0000F04BF01460020B1FAC6
:1003780081F308BF2033A3F10B03B3F120020CDA99
:100388000C3208DD02F1140CC2F10C0201FA0CF077
:1003980021FA02F10CE002F11402D8BFC2F1200CDC
:1003A80001FA02F120FA0CFCDCBF41EA0C01904092
:1003B800E41AA2BF01EB0451294330BD6FEA0404DB
:1003C8001F3C1CDA0C340EDC04F11404C4F12002C6
:1003D80020FA04F001FA02F340EA030021FA04F3D8
:1003E80045EA030130BDC4F10C04C4F1200220FA2F
:1003F80002F001FA04F340EA0300294630BD21FA6D
:1004080004F0294630BD94F0000F83F4801306BF32
:1004180081F480110134013D4EE77FEA645C18BF26
:100428007FEA655C29D094EA050F08BF90EA020FBD
:1004380005D054EA000C04BF1946104630BD91EAB5
:10044800030F1EBF0021002030BD5FEA545C05D1B8
:100458004000494128BF41F0004130BD14F58004F7
:100468003CBF01F5801130BD01F0004545F0FE416B
:1004780041F470014FF0000030BD7FEA645C1ABFA0
:10048800194610467FEA655C1CBF0B46024650EAD7
:10049800013406BF52EA033591EA030F41F4002103
:1004A80030BD00BF90F0000F04BF0021704730B589
:1004B8004FF4806404F132044FF000054FF000015E
:1004C80050E700BF90F0000F04BF0021704730B51F
:1004D8004FF4806404F1320410F0004548BF4042F4
:1004E8004FF000013EE700BF42004FEAE2014FEA49
:1004F80031014FEA02701FBF12F07F4393F07F4F24
:1005080081F06051704732F07F4208BF704793F026
:100518007F4F04BF41F40021704730B54FF4607439
:1005280001F0004521F000411CE700BF50EA01023C
:1005380008BF704730B54FF000050AE050EA0102E5
:1005480008BF704730B511F0004502D5404261EB55
:1005580041014FF4806404F132045FEA915C3FF496
:10056800D8AE4FF003025FEADC0C18BF03325FEA33
:10057800DC0C18BF033202EBDC02C2F1200300FAE4
:1005880003FC20FA02F001FA03FE40EA0E0021FA09
:1005980002F11444BDE600BF4FF0FF3C06E000BF87
:1005A8004FF0010C02E000BF4FF0010C4DF804CDF4
:1005B8004FEA410C7FEA6C5C4FEA430C18BF7FEAB4
:1005C8006C5C1BD001B050EA410C0CBF52EA430CE2
:1005D80091EA030F02BF90EA020F0020704710F162
:1005E800000F91EA030F58BF994208BF90422CBFF1
:1005F800D8176FEAE37040F0010070474FEA410CEA
:100608007FEA6C5C02D150EA013C07D14FEA430C07
:100618007FEA6C5CD6D152EA033CD3D05DF8040B78
:10062800704700BF8446104662468C4619466346AA
:1006380000E000BF01B5FFF7B7FF002848BF10F181
:10064800000F01BD4DF808EDFFF7F4FF0CBF0120C6
:1006580000205DF808FB00BF4DF808EDFFF7EAFF42
:1006680034BF012000205DF808FB00BF4DF808EDFD
:10067800FFF7E0FF94BF012000205DF808FB00BFF2
:100688004DF808EDFFF7CEFF94BF012000205DF87C
:1006980008FB00BF4DF808EDFFF7C4FF34BF012089
:1006A80000205DF808FB00BF4FEA410212F5001276
:1006B80015D211D56FF47873B3EB625212D94FEAA1
:1006C800C12343F0004343EA505311F0004F23FA8B
:1006D80002F018BF404270474FF00000704750EAE0
:1006E800013005D111F0004008BF6FF0004070479D
:1006F8004FF00000704700BF844641EA000313F042
:10070800030349D1403A23D30B6803604B68436025
:100718008B688360CB68C3600B6903614B69436175
:100728008B698361CB69C3610B6A03624B6A43625D
:100738008B6A8362CB6AC3620B6B03634B6B436345
:100748008B6B8363CB6BC36340304031403ADBD261
:1007580030320BD30B6803604B6843608B6883604F
:10076800CB68C36010301031103AF3D20C3205D385
:1007780051F8043B40F8043B043AF9D2043208D05B
:10078800D2071CBF11F8013B00F8013B01D30B88CD
:1007980003806046704700BF082A13D38B07B1D087
:1007A80010F00303AED0C3F10403D21ADB071CBF59
:1007B80011F8013B00F8013BA4D331F8023B20F8C3
:1007C800023B9FE7043AD9D3013A11F8013B00F8FC
:1007D800013BF9D20B7803704B7843708B788370A8
:1007E8006046704780EA010C1CF0030F37D110F007
:1007F800030C20F0030021F0030150F8042B08BF7C
:1008080051F8043B0ED08CF0030C6FF07F434FEA95
:10081800CC0C23FA0CFC51F8043B42EA0C0243EAE4
:100828000C0300BFA2F1013C9A4201BF2CEA020C62
:100838001CF0803F50F8042B51F8043BF2D04FEAEB
:1008480002604FEA1222012828BFB0EB036F08BFED
:100858001B0AF4D003F0FF03000EC01A704710F013
:10086800030F0AD010F8012B11F8013B012A28BF09
:100878009A42F4D0A2EB030070474DF8045D50F89B
:10088800042B01F0030521F0030151F8043B022D6C
:1008980026D04DD822F07F45B5EB132FA2F1013CAD
:1008A8002CEA020C0DD11CF0803C08BF51F8043B27
:1008B8000AD185EA0205B5EB036F0CD150F8042B79
:1008C800E8E74FEA13235BE03CF07F4C54D10B7808
:1008D8004FEA126554E04FEA126503F0FF034FE058
:1008E8004FEA0245A2F1013C4FEA15452CEA020CF9
:1008F800B5EB134F18D11CF0803C08BF51F8043BEE
:1009080007D185EA0205B5EB034F09D150F8042B4E
:10091800E6E75FEA0C4C2FD10B884FEA12452FE02F
:100928004FEA03434FEA12454FEA134328E000BF5A
:1009380002F0FF05B5EB136FA2F1013C2CEA020CA3
:100948000DD11CF0803C08BF51F8043B0AD185EA60
:100958000205B5EB032F0AD150F8042BE8E74FEA5C
:1009680013630DE012F0FF0F06D051F8043B4FEA75
:10097800122523F07F4303E04FF0000020BC7047AE
:1009880005F0FF0203F0FF00012828BF904204BFD2
:100998002D0A1B0AF4D0A2EB000020BC704700BF50
:1009A80070B54FF0FF0C4CF4E06C1CEA11541DBFFD
:1009B8001CEA135594EA0C0F95EA0C0F00F0DEF8C8
:1009C8002C4481EA030621EA4C5123EA4C5350EAAD
:1009D800013518BF52EA033541F4801143F48013FE
:1009E80038D0A0FB02CE4FF00005E1FB02E506F08F
:1009F8000042E0FB03E54FF00006E1FB03569CF0E4
:100A0800000F18BF4EF0010EA4F1FF04B6F5007FE9
:100A180064F5407404D25FEA4E0E6D4146EB06065B
:100A280042EAC62141EA55514FEAC52040EA5E50E4
:100A38004FEACE2EB4F1FD0C88BFBCF5E06F1ED88E
:100A4800BEF1004F08BF5FEA500E50F1000041EBC5
:100A5800045170BD06F0004646EA010140EA020072
:100A680081EA0301B4EB5C04C2BFD4EB0C0541EA94
:100A7800045170BD41F480114FF0000E013C00F3A9
:100A8800AB8014F1360FDEBF002001F0004170BDCD
:100A9800C4F10004203C35DA0C341BDC04F11404E6
:100AA800C4F1200500FA05F320FA04F001FA05F272
:100AB80040EA020001F0004221F0004110EBD3703F
:100AC80021FA04F642EB06015EEA430E08BF20EA6B
:100AD800D37070BDC4F10C04C4F1200500FA04F30E
:100AE80020FA05F001FA04F240EA020001F00041A0
:100AF80010EBD37041F100015EEA430E08BF20EA13
:100B0800D37070BDC4F1200500FA05F24EEA020E5A
:100B180020FA04F301FA05F243EA020321FA04F089
:100B280001F0004121FA04F220EA020000EBD37040
:100B38005EEA430E08BF20EAD37070BD94F0000F40
:100B48000FD101F00046400041EB010111F4801F74
:100B580008BF013CF7D041EA060195F0000F18BF25
:100B6800704703F00046520043EB030313F4801F61
:100B780008BF013DF7D043EA0603704794EA0C0F1B
:100B88000CEA135518BF95EA0C0F0CD050EA410631
:100B980018BF52EA4306D1D181EA030101F00041AE
:100BA8004FF0000070BD50EA410606BF10461946D6
:100BB80052EA430619D094EA0C0F02D150EA0136E2
:100BC80013D195EA0C0F05D152EA03361CBF104623
:100BD80019460AD181EA030101F0004141F0FE41C2
:100BE80041F470014FF0000070BD41F0FE4141F446
:100BF800780170BD70B54FF0FF0C4CF4E06C1CEA46
:100C080011541DBF1CEA135594EA0C0F95EA0C0FFA
:100C180000F0A7F8A4EB050481EA030E52EA0335B5
:100C28004FEA013100F088804FEA03334FF08055D6
:100C380045EA131343EA12634FEA022245EA111503
:100C480045EA10654FEA00260EF000419D4208BFB4
:100C5800964244F1FD0404F5407402D25B084FEA61
:100C68003202B61A65EB03055B084FEA32024FF40D
:100C780080104FF4002CB6EB020E75EB030E22BF6A
:100C8800B61A754640EA0C005B084FEA3202B6EB2A
:100C9800020E75EB030E22BFB61A754640EA5C00D9
:100CA8005B084FEA3202B6EB020E75EB030E22BF69
:100CB800B61A754640EA9C005B084FEA3202B6EB6A
:100CC800020E75EB030E22BFB61A754640EADC0029
:100CD80055EA060E18D04FEA051545EA16754FEA8B
:100CE80006164FEAC30343EA52734FEAC2025FEAA9
:100CF8001C1CC0D111F4801F0BD141EA00014FF038
:100D080000004FF0004CB6E711F4801F04BF014308
:100D18000020B4F1FD0C88BFBCF5E06F3FF6AFAE24
:100D2800B5EB030C04BFB6EB020C5FEA500C50F1B4
:100D3800000041EB045170BD0EF0004E4EEA113137
:100D480014EB5C04C2BFD4EB0C0541EA045170BD3E
:100D580041F480114FF0000E013C90E645EA060E82
:100D68008DE60CEA135594EA0C0F08BF95EA0C0FB0
:100D78003FF43BAF94EA0C0F0AD150EA01347FF4F8
:100D880034AF95EA0C0F7FF425AF104619462CE7CF
:100D980095EA0C0F06D152EA03353FF4FDAE104632
:100DA800194622E750EA410618BF52EA43067FF483
:100DB800C5AE50EA41047FF40DAF52EA43057FF413
:100DC800EBAE12E74FEA410C7FEA6C5C02D150EAC5
:100DD800013C0AD14FEA430C7FEA6C5C02D152EA2B
:100DE800033C02D14FF0000070474FF001007047FC
:100DF8004A0011D212F5001211D20DD56FF4787392
:100E0800B3EB62520ED44FEAC12343F0004343EAE6
:100E1800505323FA02F070474FF00000704750EA31
:100E2800013002D14FF0FF3070474FF0000070479B
:100E38004FEA4102B2F1E04324BFB3F5001CDCF1F4
:100E4800FE5C0DD901F0004C4FEAC0024CEA50702C
:100E5800B2F1004F40EB830008BF20F0010070475B
:100E680011F0804F21D113F13872BCBF01F000405E
:100E7800704741F480114FEA5252C2F11802C2F190
:100E8800200C10FA0CF320FA02F018BF40F0010011
:100E98004FEAC1234FEAD32303FA0CFC40EA0C00C3
:100EA80023FA02F34FEA4303CCE77FEA625307D100
:100EB80050EA01331EBF4FF0FE4040F44000704737
:100EC80001F0004040F0FE4040F40000704700BFD1
:100ED80053B94AB9002908BF00281CBF4FF0FF3199
:100EE8004FF0FF3000F0AEB9ADF1080C6DE904CE5B
:100EF80000F03EF8DDF804E0DDE9022304B07047B5
:100F080038B505460C460022002328462146FFF73F
:100F1800A3FB28B928462146BDE8384000F00AB8A6
:100F2800284604F1004100F005F8404261EB410118
:100F380038BD00BFD0B500220B4B06460F46FFF761
:100F48002FFDFFF755FF0446FFF7ACFA0022074BC9
:100F5800FFF726FD02460B4630463946FFF764F98F
:100F6800FFF746FF2146D0BD0000F03D0000F041EC
:100F78002DE9F047089E0D4604468846002B4DD1C2
:100F88008A42944668D9B2FA82F252B101FA02F35F
:100F9800C2F1200120FA01F10CFA02FC41EA03082F
:100FA80094404FEA1C41B8FBF1F71FFA8CFE01FB95
:100FB800178807FB0EF0230C43EA084398420AD926
:100FC8001CEB030307F1FF3580F01E81984240F2C5
:100FD8001B81023F63441B1AB3FBF1F001FB103382
:100FE80000FB0EFEA4B244EA0344A6450AD91CEB52
:100FF800040400F1FF3380F00981A64540F2068120
:10100800644402380021A4EB0E0440EA07401EB1F4
:101018000023D440C6E90043BDE8F0878B4208D9D5
:10102800002E00F0EE800021C6E900050846BDE864
:10103800F087B3FA83F100294AD1AB4202D3824246
:1010480000F2FC80841A65EB030301209846002E09
:10105800E2D0C6E90048DFE702B9FFDEB2FA82F261
:10106800002A40F09180A1EB0C0001214FEA1C47B7
:101078001FFA8CFEB0FBF7F307FB1300250C45EABB
:1010880000450EFB03F0A84208D91CEB050503F147
:10109800FF3802D2A84200F2CE8043462D1AB5FB93
:1010A800F7F007FB10550EFB00FEA4B244EA054416
:1010B800A64508D91CEB040400F1FF3502D2A64569
:1010C80000F2B6802846A4EB0E0440EA03409EE7EF
:1010D800C1F120078B4022FA07FC4CEA030C25FAE1
:1010E80007FA4FEA1C49BAFBF9F820FA07F309FB9B
:1010F80018AA8D401FFA8CFE1D4300FA01F308FB65
:101108000EF02C0C44EA0A44A04202FA01F20BD970
:101118001CEB040408F1FF3A80F08880A04240F2FA
:101128008580A8F102086444241AB4FBF9F009FB8D
:10113800104400FB0EFEADB245EA0444A64508D9AA
:101148001CEB040400F1FF356CD2A6456AD90238BD
:10115800644440EA0840A0FB0295A4EB0E04AC42AC
:10116800C846AE4656D353D0002E69D0B3EB08021A
:1011780064EB0E0422FA01F304FA07F71F43CC408C
:10118800C6E90074002147E70CFA02FCC2F120010D
:1011980025FA01F34FEA1C4720FA01F195400D4367
:1011A800B3FBF7F107FB11331FFA8CFE280C40EA5A
:1011B800034001FB0EF3834204FA02F408D91CEB46
:1011C800000001F1FF382FD283422DD90239604443
:1011D800C01AB0FBF7F307FB1300ADB245EA0045B0
:1011E80003FB0EF0A84208D91CEB050503F1FF38F4
:1011F80016D2A84214D9023B6544281A43EA014191
:1012080038E73146304607E72F46E4E61846F9E660
:101218004B45A9D2B9EB020865EB0C0E0138A3E7E0
:101228004346EAE7284694E74146D1E7D0467BE7BC
:101238006444023847E7023B65442FE7084606E75F
:101248003146E9E6704700BF00B585B00023019339
:10125800029303931148124A026083600373037573
:101268004FF46022C26143600123036104F08AFBEA
:1012780068B90B230193012302930023039301A967
:10128800064804F0B1FA28B905B05DF804FB01F08E
:101298001BFBEEE701F018FBF6E700BF000A002091
:1012A8000024014000B587B0002302930393049300
:1012B80005930268114B9A4202D007B05DF804FB0F
:1012C80003F56C439A6942F400729A619A6902F4D0
:1012D80000720092009A9A6942F010029A619B6922
:1012E80003F010030193019B062302930323039346
:1012F80002A9034804F02EFFDFE700BF00240140E5
:101308000010014000B583B0164B5A6942F0010243
:101318005A615A6902F001020092009A5A6942F031
:1013280002025A615B6903F002030193019B0022E8
:1013380011460D2004F0CCFB0D2004F001FC002226
:101348001146102004F0C4FB102004F0F9FB002221
:1013580011463A2004F0BCFB3A2004F0F1FB03B03C
:101368005DF804FB0010024010B588B00024049416
:101378000594069407941B4B9A6942F020029A61DF
:101388009A6902F020020092009A9A6942F01002CB
:101398009A619A6902F010020192019A9A6942F0E0
:1013A80004029A619A6902F004020292029A9A6906
:1013B80042F008029A619B6903F008030393039BB8
:1013C80001230493084B059304A9084804F0C2FEBE
:1013D80022462146062004F07BFB062004F0B0FBE1
:1013E80008B010BD0010024000003110001001408C
:1013F80020B3844621B3884224D000B50DE0964638
:101408000878124BC35C03F00303012B10D0864508
:1014180010D1CAB10CF1010C01319CF800200B4B22
:10142800D35C03F00303012BE9D102F1200EE7E7B7
:101438002030ECE7AEEB00005DF804FB01207047BC
:1014480001207047002070470020F5E7614201083D
:101458002E2070478446002318460AE0A1F1410275
:10146800D2B2052A11D808443738022B00D8000117
:101478000133032B11D81CF80310A1F13002D2B2AA
:10148800092AEBD808443038EFE7A1F16102D2B25B
:10149800052A03D808445738E7E770470020704703
:1014A800F8B50B1A052B60DD06460F4615460230C7
:1014B800FFF7D0FF0446A0F55C43B3F5806F56D321
:1014C800A0F55843B3F5806F1CD2B11D7F1A052FC4
:1014D8004FDDB3795C2B4ED1F379752B4DD106F1E5
:1014E8000800FFF7B7FFA0F55C43B3F5806F46D25D
:1014F800254B03EA8424C0F30900204300F5803417
:101508000C2000E006207F2C0BD9B4F5006F0DD31A
:10151800B4F5803F0DD3B4F5881F32D2F0270426E6
:1015280001E000270126731EDBB20EE0C027022669
:10153800F9E7E0270326F6E704F03F012A6841F0BF
:101548008001D154A409013BDBB2002BF4D1012E58
:1015580006D92B683C431C702B6833442B6005E08C
:101568002B6804F07F041C70F6E70020F8BD00200B
:10157800FCE70020FAE70020F8E70020F6E7002063
:10158800F4E70020F2E700BF00FC0F002DE9F0416E
:1015980082B00E460F688B685D1C3D4400220192A4
:1015A80007EB030CFB5C222B40F0858080462C4621
:1015B800104600E00134E11B726891420AD2237898
:1015C800222B07D05C2BF5D10134E31B934272D256
:1015D8000130EFE791426ED22378222B6BD1A4EB36
:1015E8000C0CACEB00003369013098470746002823
:1015F8005DD001902BE0631B002B58DD6B78752BB9
:1016080055D85C2B11D35C3B192B50D8DFE803F07D
:10161800114F4F4F4F4F184F4F4F2B4F4F4F4F4F6B
:101628004F4F324F4F4F394F4047222B01D02F2B6E
:101638003DD1019B5A1C01926A781A70022305E079
:10164800019B5A1C019208221A7002231D44A542CC
:1016580039D22B785C2BCED0019B5A1C019215F8FD
:10166800012B1A70F3E7019B5A1C01920C221A7085
:101678000223EBE7019B5A1C01920A221A700223EB
:10168800E4E7019B5A1C01920D221A700223DDE740
:10169800019B5A1C019209221A700223D6E701AA5B
:1016A80021462846FFF7FCFE03460028CED117B195
:1016B800736938469847ADB13368ED1AB5600020B4
:1016C80002B0BDE8F081019B00221A701023C8F80F
:1016D8000C30C8F810703368E41AB4600134B46090
:1016E8000120EDE70020EBE7024680B1006818B959
:1016F80002460CE001339360936851688B4202D232
:10170800C15C2029F6D9936851688B4201D01046F4
:101718007047013B9360FAE738B1806801E001390E
:10172800006810B10029FAD170477047016048601D
:10173800704781B10A4680B108B5836843B118463D
:101748001B68002BFBD11146FFF7F0FF012008BDF5
:1017580081600120FBE70020704700207047704738
:1017680050B138B50546006828B1AC68204407F088
:1017780059FA0444AC6038BD704710B50368282096
:101788009847044618B12822002106F0ADFD2046EE
:1017980010BD000038B5044678B1006878B1A56876
:1017A8007DB92B1D6268934207D20322064928445B
:1017B80007F066FA08B90335A560204638BD044627
:1017C800FBE70024F9E700BFE83D0108000000003E
:1017D8002DE9F04393B005460C4600231193FFF71B
:1017E80037FE002C00F099802368002B00F09780CA
:1017F800002331E0652A29D048336B44002203F8DE
:10180800442C0DF1040911A9484608F05FFC06466E
:101818000F46DDF84480C84500F08380C5E90667B7
:1018280041A3D3E90023FEF72BFF002864D06FF013
:1018380000436B610823EB6001ABA8EB0308A368C6
:101848004344A360012013B0BDE8F08303F14801CD
:10185800694401F8442C01333E2BCDD8A2681A44C0
:1018680061688A42C8D221688A5C452AC2D82B2A74
:10187800C2D3A2F12B011A29BED801A656F821F02D
:10188800551800080118000855180008F518000830
:1018980001180008551800085518000855180008C0
:1018A800551800085518000855180008551800085C
:1018B80055180008551800085518000801180008A0
:1018C800011800080118000801180008011800088C
:1018D800011800080118000801180008011800087C
:1018E80001180008011800085518000803F14802FB
:1018F8006A4402F8440CAEE700220D4B30463946E4
:10190800FEF7B4FE18B14FF000436B6192E7304622
:101918003946FEF7C9FE68618CE7002093E700208E
:1019280091E700208FE700BF0000C0FFFFFFDF4105
:101938000000E0C170B50546002846D0066836B3F9
:10194800436813B18268934241D9002941DBAA68F0
:10195800114401318B420AD22B69002B3BD1B1F1E2
:10196800804F08D3002904DB6FF0004404E01644DC
:101978000DE000260BE04C002B6A8BB12146304667
:101988009847064628B16C602E60AB681E44304606
:1019980070BDEB692868984700236B602B60F6E7F9
:1019A800AB6920469847064640B1AA6801322968C3
:1019B800FEF7A2FEEB6928689847E4E7EB69286818
:1019C800984700236B602B60E1E70646DFE70026B7
:1019D800DDE70026DBE70026D9E770B5064670B1DB
:1019E8000D4607F01FF9441C2B682046984705460A
:1019F80018B122463146FEF77FFE284670BD0546DF
:101A0800FBE758B32DE9F0410D4614461E4607463C
:101A180031B33AB3069BBBB10846FFF7A0FE804638
:101A2800E56845F40075E36813F4007F03D1206A84
:101A380008B173689847C4F82080E56021463846A5
:101A4800FFF777FEBDE8F08131462846FFF7C5FF6E
:101A5800804648B1E56825F40075E4E70020704742
:101A68000020EFE70020EDE70698EBE7002900F0FB
:101A78009780F8B50446084614B1A446002511E03D
:101A88000321FFF757FF002800F08C80474A118890
:101A9800927801808270012081E05C2B11D10135A0
:101AA8000CF1010C9CF800307BB1222BF5D8082BE7
:101AB80007D3A3F10802D1B201228A403C490A4265
:101AC800EDD11F2BECD80535EAE7ACEB040C0CEB99
:101AD8000506F11CFFF72EFF0746002864D025B144
:101AE8000546222305F8013B30E0222500F8015B7A
:101AF80032462146FEF700FE731CFD5402360023D1
:101B0800BB5501204BE028465C2300F8013B2278B6
:101B1800222A15D8082A36D3A2F108031A2B32D85C
:101B2800DFE803F0222E2831252B313131313131D4
:101B380031313131313131313131313131311F00D0
:101B48005C2A20D15C236B700134451C2378FBB1DF
:101B58001F2BD8D9222BD6D05C2BD4D02B7028465B
:101B6800F2E722236B70EFE762236B70ECE76623E2
:101B78006B70E9E76E236B70E6E772236B70E3E73F
:101B880074236B70E0E70B4906F058FF681DDBE72C
:101B9800731C2222FA5402360023BB550120F8BDDB
:101BA800002070470020FAE70020F8E7EC3D010824
:101BB80037000004F03D010808B50069FFF756FF3B
:101BC80008BD00002DE970438AB00D46D0E90689AA
:101BD800FFF73EFC002D54D0044600220023404667
:101BE8004946FEF7DDFE00220023FEF72BFD68B90B
:101BF800264B93E8030003908DF810100426B04696
:101C0800192E21D900200AB0BDE8708342464B4600
:101C18001F4903A806F012FF06466A461D4903A895
:101C280006F02EFF012807D142464B46DDE90001A8
:101C3800FEF708FD0028E2D142464B46164903A8A4
:101C480006F0FCFE0646DAE7711C2846FFF772FE2E
:101C58000146C0B1002302E02E22CA540133984540
:101C680008D903F128026A4412F81C2CA242F3D0C6
:101C7800CA54F3E70022CA54AB684344AB6001205E
:101C8800C1E70020BFE70020BDE700BFF83D01081D
:101C9800003E0108083E01080C3E010870B5002806
:101CA8006CD00D46064600296AD0047B202C16DC31
:101CB800002C67D0631E1F2B66D8DFE803F036427E
:101CC80065286565654F6565656565656553656521
:101CD8006565656565656565656565656557402C18
:101CE80048D0802C11D10069002856D006F09AFF00
:101CF800441C21462846FFF71DFE00284FD02246E7
:101D08003169FEF7F9FC01243FE000243DE005219C
:101D18002846FFF70FFE0346002838D0214A1068EE
:101D2800186012791A7101242FE006212846FFF75E
:101D380001FE034668B31C4A1068186092889A80AE
:101D480023E005212846FFF7F5FD034618B3174A97
:101D58001068186012791A71012416E0FFF732FF33
:101D6800044612E0FFF728FF04460EE000F072F880
:101D780004460AE000F0C2F8044606E0002404E045
:101D8800002402E0002400E00024204670BD002466
:101D9800FBE70024F9E70024F7E70024F5E700242F
:101DA800F3E700BFF83D0108143E01081C3E010896
:101DB800F0B58BB007460D4616462422002101A82F
:101DC80006F092FA33684FF4807098470446019001
:101DD8004FF480730293069596E807000AAB03E96F
:101DE80007002CB101A93846FFF758FF60B9002455
:101DF800019808B1736898471CB1736820469847E2
:101E0800002420460BB0F0BD01A8FFF7A9FCB36879
:101E18004BB1039901310198984704460028E7D04F
:101E280000230193EDE7336803980130984704468F
:101E38000028DDD0039A0132029B9A4228BF1A4635
:101E48000199FEF759FC039B0022E254736801983C
:101E58009847D6E770B58568002946D00C46012119
:101E68002046FFF767FD002842D05B220270A36876
:101E78000133A360E3680133E36007E0012616E05D
:101E880000221A70A3683344A3602D68FDB121466F
:101E98002846FFF703FF034640B32046FFF760FCE0
:101EA8002B68002BF1D06369002BE7D00226711C48
:101EB8002046FFF73FFDE8B103462C2103F8011B3C
:101EC80061690029DCD0831C20214170D8E70221F8
:101ED8002046FFF72FFD78B15D2202700022427084
:101EE800E368013BE360012300E00023184670BD6E
:101EF8000023FBE70023F9E70023F7E770B58568BF
:101F0800002900F0A3800C464B69A3B10226711C7E
:101F18002046FFF70FFD002800F09B807B2303700D
:101F2800E3680133E36063690BB10A234370A36874
:101F38003344A36022E00126E9E7E1682046FFF781
:101F4800F9FC0346002800F08680002203E00921FE
:101F580003F8011B0132E1689142F8D8A3680B44E9
:101F6800A36010E001261CE0002637E0002339E0DA
:101F780000221A70A3683344A3602D68002D44D052
:101F88006369002BD9D12146286AFFF76FFD034604
:101F980000285CD02046FFF7E3FB6369002BE1D003
:101FA800022631462046FFF7C5FC002855D03A22C4
:101FB800027062690AB109224270A3683344A360BF
:101FC80021462846FFF76AFE034600283FD02046F0
:101FD800FFF7C6FB6369002BC6D001262B68002BD0
:101FE800C4D001231E44711C2046FFF7A3FC0346FE
:101FF800A8B32A6812B12C2203F8012B6269002ABF
:10200800B6D00A2203F8012BB2E763698BB1E16805
:1020180001312046FFF78EFC034610B362699AB976
:102028007D221A7000225A70E368013BE3600123A5
:102038000DE00221EDE7092203F8012B0131E268E6
:10204800013A8A42F7D8EBE70021F8E7002318465F
:1020580070BD0023FBE70023F9E70023F7E700231F
:10206800F5E70023F3E738B50446C8B10D46C9B112
:1020780084680AB90AE024687CB1216A69B12846F3
:10208800FEF7B0FB0028F6D107E024682CB1216ADE
:102098002846FFF7ADF90028F7D12CB1236A2BB1F8
:1020A800204638BD0C46FBE70024F9E70024F7E793
:1020B80008B5024A0021FFF77BFE08BD000000209A
:1020C80038B18368002001E001301B68002BFBD188
:1020D800704700207047002903DB08B5FFF71CFB99
:1020E80008BD0020704708B50022FFF7BCFF08BDF7
:1020F80008B5FFF71EFB08BD00B583B000230093A9
:10210800024BFFF77EFC03B05DF804FB00000020E3
:1021180070B504460D461648FFF72FFB064670B10A
:102128000823C360C0E906450FA3D3E9002320466E
:102138002946FEF7A5FA20B16FF0004373613046D7
:1021480070BD00220B4B20462946FEF78FFA18B1C6
:102158004FF000437361F2E720462946FEF7A4FAE0
:102168007061ECE7AFF300800000C0FFFFFFDF41C4
:10217800000000200000E0C108B50348FFF7FDFAA1
:1021880008B12023C36008BD0000002008B503483B
:10219800FFF7F3FA08B14023C36008BD0000002030
:1021A80028B1007B102814BF0020012070470020B0
:1021B800704728B1007B202814BF002001207047F9
:1021C8000020704708B5024B5B68984708BD00BF00
:1021D8000000002038B5044603E02046FFF7F2FF70
:1021E8002C46D4B12568E36813F4807F03D1A06836
:1021F80008B1FFF7EFFFE36813F4807F03D120698C
:1022080008B1FFF7DFFFE36813F4007FE5D1206A28
:102218000028E2D0FFF7D6FFDFE738BDCB68B3F57B
:102228007A7F80F086802DE9F04106460C4601331E
:10223800CB6000297FD08B684A6893427DD20A68B8
:10224800D25C7B2A02D00020BDE8F08101338B608C
:102258000846FFF749FAA3686268934203D22268E6
:10226800D35C7D2B59D0A3686268934204D2013BAA
:10227800A36000252F4634E0013BA3600020E3E77C
:102288000746A3680133A3602046FFF72DFA2146CD
:102298002846FFF77BF9002839D02046FFF724FAB3
:1022A8002B692B6200232B61A368626893422ED2AC
:1022B8002268D25C3A2A2AD10133A3602046FFF76C
:1022C80013FA2146284600F03DF800B32046FFF7F0
:1022D8000BFAA3686268934211D22268D35C2C2B54
:1022E8000DD1A84604F11000FFF747FA054670B172
:1022F800002FC5D0C8F80000C0F80480C1E7A36863
:102308006268934203D22268D35C7D2B06D0B7B1B2
:102318003846FFF75FFF002096E70027E368013B98
:10232800E3604023F360B760A3680133A360012032
:102338008AE700207047002086E7002084E7002015
:1023480082E70000002974D070B506460C460D6877
:10235800002D70D08868021D4B689A4206D8042266
:102368003749284406F08CFC002839D0A068421D63
:1023780063689A4206D805223249284406F080FC50
:10238800002834D0A068021D63689A4206D8042247
:102398002D49284406F074FC00282ED0A3686268F2
:1023A800934202D2EB5C222B2FD0A368626893423F
:1023B80006D2EB5C2D2B2DD0303BDBB2092B29D973
:1023C800A3686268934202D2EB5C5B2B27D0A368B8
:1023D8006268934231D2EB5C7B2B25D000202BE046
:1023E8000423F360A3680433A360012024E00120E0
:1023F800F060A2680532A2601EE00223F3600120AB
:102408007061A2680432A26016E021463046FFF7E8
:10241800BDF811E021463046FFF7DAF90CE0214615
:10242800304600F013F807E021463046FFF7F6FE85
:1024380002E000207047002070BD0020FCE700BFCC
:10244800F83D0108143E01081C3E0108CB68B3F5AD
:102458007A7F6AD22DE9F04106460C460133CB60FB
:102468000A688B68D25C5B2A02D00020BDE8F08144
:1024780001338B600846FFF737F93CB1A3686268FF
:10248800934203D22268D35C5D2B46D044B1A36843
:102498006268934204D2013BA36000252F461EE0E8
:1024A800A368013BA3600020E0E7C8F80000C0F87B
:1024B8000480A3680133A3602046FFF715F921467D
:1024C8002846FFF73FFF50B32046FFF70DF9A368F2
:1024D800626893420ED22268D35C2C2B0AD1A8469C
:1024E80004F11000FFF749F90546C0B1002FDCD10F
:1024F8000746DEE7A3686268934210D22268D35C7D
:102508005D2B0CD1E368013BE3602023F360B760E7
:10251800A3680133A3600120A8E70027F2E737B1D9
:102528003846FFF757FE0020A0E70020704700203C
:102538009CE70000F0B58BB00C46174600230393C8
:10254800049305930693079308930993294A136004
:102558005360054678B3039006F064FB013004909D
:10256800254B93E807000AAE06E907001846FFF76F
:1025780004F90646D8B103A8FFF70CF9FFF7B4F839
:1025880001463046FFF7DEFE88B12FB93CB3039B06
:10259800059A1344236022E003A8FFF7A5F8059BDA
:1025A800049A934203D2039AD35C002BEED016B15F
:1025B8003046FFF70FFED5B1019500230293059A27
:1025C800049B9A420ED2029214B1029B2B442360C0
:1025D800084B01AA92E8030083E80300002630466E
:1025E8000BB0F0BD002BEFD0013B0293ECE72E4679
:1025F800F5E700BF300A00200000002008B50022DF
:102608001146FFF797FF08BD70B582B005460E4624
:1026180010461946FFF77CFD044600230093074B3C
:10262800024631462846FFF7ECF910B1204602B0C1
:1026380070BD2046FFF7CEFD0024F7E7000000201C
:1026480038B504460A48FFF798F8054640B1102304
:10265800C36007492046FFF7C0F90446286108B15E
:10266800284638BD2846FFF7B5FD2546F8E700BFE0
:102678000000002070B582B005460E461046FFF7F0
:10268800DFFF044600230093074B024631462846E5
:10269800FFF7B7F910B1204602B070BD2046FFF72A
:1026A80099FD0024F7E700BF000000200023194629
:1026B80000E00133FF2B07D8064AD26832F813200E
:1026C800002AF6D00131F4E7642303FB01F1C1F3DA
:1026D800072070470C00002004E011F8012B00F8D7
:1026E800012B1A46531E002AF7D1704702E000F862
:1026F800011B1A46531E002AF9D1704710B5084C21
:102708004FF400720021E068FFF7F0FF4FF4005229
:102718000021A068FFF7EAFF0123237410BD00BF62
:102728000C00002010B504461A4B1B7C13B9194B3A
:102738001B68984754B3C4F34F1114F01F0F01D00E
:10274800013189B20022FF2303E00022914218D010
:10275800013B002B17DB0F48C0689C4630F813007C
:102768000028F2D1013292B2F0E70A4AD2680CEBA3
:10277800030022F8101001339942F6D84FEA4C10A2
:1027880010BD0023F8E74FF0FF30F9E74FF0FF30B6
:10279800F6E700BF0C00002008B5104B1B7C4BB1BE
:1027A800B0F5005F17D240090C4BDB6833F810E036
:1027B80000230CE0094B1B68984701200AE0074AF0
:1027C800D26819184FF0000C22F811C00133734574
:1027D800F5DB002008BD0220FCE700BF0C0000204C
:1027E80038B108B50346034A9068181AFFF7D4FFB2
:1027F80008BD70470C00002008B5FFF793FFB0F143
:10280800FF3F03D0024B9B68184408BD0020FCE73B
:102818000C000020F8B506460D460846FFF782FF73
:10282800B0F1FF3F0DD00446074FB8682A4631463D
:102838002044FFF751FF3046FFF7D2FFB868204425
:10284800F8BD0020FCE700BF0C00002010B50024F4
:102858000BE0074AC4EBC401CB00D0180021D150CB
:102868003222043005F040FD0134272CF1DD10BD83
:10287800382C002084B038B504AC84E80F0000235D
:1028880000E00133272B19DCC3EBC3020D4951F8D3
:102898003220002AF5D104AD55F8040B0A46C3EBE3
:1028A800C30142F8310002EBC1031C1D284606F0A3
:1028B800B9F902462946204606F020FABDE8384014
:1028C80004B07047382C002072B6FEE700B597B008
:1028D800282200210CA805F007FD00230793089380
:1028E80009930A930B93019302930393049305931B
:1028F800069301220C924FF480330D93109202221A
:10290800139214934FF4E01315930CA803F06EFD83
:10291800C8B90F23079302210891002309934FF4A4
:1029280080620A920B9307A803F0A0FF68B90223FC
:1029380001934FF40043039301A804F073F830B9EE
:1029480017B05DF804FBFFF7BFFFFFF7BDFFFFF708
:10295800BBFF000010B502F023FFFFF7B7FFFEF73B
:1029680003FD01F03DF800F067FE00F0BBFE00F04B
:102978007DFFFEF769FC00F003FFFEF7C3FC01F0E2
:102988006DF801F051F800F0A7FC00F0DDFC00F054
:1029980005FD01F00BF800F065FCFFF757FF01F0AB
:1029A800BFFE002401E098470134272CF9DCC4EB72
:1029B800C402D300024AD358002BF4D1F4E700BF75
:1029C800382C002070B50446037A032B21D0042B41
:1029D80021D0002504F10C0393E8070000F029FA40
:1029E80002300544E37EC3B9236C3BB304F14003D2
:1029F80093E8070000F01DFA02300544E36C0BB3BE
:102A08004C3494E8070000F014FA023005442846D4
:102A180070BD0C25DEE70A25DCE704F1240393E802
:102A2800070000F006FA861C04F1300393E807005B
:102A380000F0FFF9064402363544D5E7A36C002BB5
:102A4800D4D1DBE7636D002BDAD1E0E72DE9F04163
:102A580082B006460F46144601901046FFF7B2FFB3
:102A6800804600F04BF9B8427BDC0025102101A814
:102A780000F072F94146019800F0FCF8019B03440C
:102A88000193237A042B3FD0374901A800F081F93C
:102A9800032101A800F060F9A37E63F34105E37EFA
:102AA800003B18BF012363F3820515F0040F07D01C
:102AB80094F83D3063F3C40594F83C3063F345154E
:102AC800236C5BB345F08005E36C5BB345F04005D0
:102AD800EDB2294601A800F03FF9218B01A800F0CA
:102AE80041F904F10C030ECB01A800F066F9E37E6E
:102AF800E3B915F0800F26D115F0400F2AD10198BF
:102B0800801B02B0BDE8F081184901A800F041F926
:102B180004210DEB010000F01FF9BDE7A36C002BA9
:102B2800D0D1D1E7636D002BD0D1D1E704F12403D4
:102B38000ECB01A800F041F904F130030ECB01A837
:102B480000F03BF9D5E704F140030ECB01A800F0F3
:102B580034F9D1E74C3494E80E0001A800F02DF9BF
:102B6800CDE76FF00100CCE72C3E0108243E0108B8
:102B78002DE9F04182B080460D4616461F460024D6
:102B88000B9B0193009401A800F0E0F860F30704A0
:102B980000F0F00CBCF1300F04D00024204602B045
:102BA800BDE8F081C4F3C00388F80030C4F34103E2
:102BB8002B60C4F3000434706946019800F0B2F841
:102BC8000446019E06440196009B1E44324601A914
:102BD800089800F014F90028E0D0019BF31A002BA4
:102BE800DCDB2B68002B07DC019BF61A0A9A1660BF
:102BF800099A13600124D1E701A800F09FF83880F2
:102C0800F2E7F0B583B005460F4616460024019357
:102C180001A800F09BF860F30704C4F3C0033B70FD
:102C2800C4F303142C706946019800F07BF8019BEB
:102C380003440193009B012B04DD01A800F07EF8FA
:102C48003080012003B0F0BD8446084600238B4243
:102C58000CDA30B4064C2268551C256012788CF8C2
:102C6800002001338342F5DB30BC7047704700BF5A
:102C7800F834002010B504464FF0000C0BE001F1C9
:102C88007F0E14E043F080030CF1010004F80C30CF
:102C98007F2A11DD84464A4201F07F0302F07F0259
:102CA80058BF5342DBB20A468E460029E7DB4FEA9B
:102CB800EE117F2AE8DDE5E710BDF0B583B00746E1
:102CC8000D4600240C6001260134042C12DC01217D
:102CD8000DF10700B84701280CD19DF8073003F023
:102CE8007F022B6806FB02332B60F6019DF9073043
:102CF800002BE9DB204603B0F0BD0000431C7F2B0E
:102D080001DC02307047B3F5804F01DA03307047B9
:102D1800034A934201DC043070470530704700BF16
:102D2800FEFF1F0008B5034B18600348FFF7C5FFF7
:102D380008BD00BFF8340020512C0008036819783A
:102D48005A780233036002EB012070470346026899
:102D580012F8010B1A607047036819700368013391
:102D6800036070470B46002910DB0268C3F3072392
:102D780013700268531C03604B42C9B2DBB258BFE0
:102D880059425170036801330360704701F1FF0332
:102D9800EBE770B504460E46084605F043FF0546C6
:102DA80001462046FFF7DEFF2A4631462068FDF738
:102DB800A3FC20682844206070BD30B585B0044667
:102DC80004A800E90E00002A05DC019991B120460B
:102DD800FFF7DFFF0CE0154611462046FFF7C2FF5C
:102DE8002A4603992068FDF787FC23682B44236053
:102DF80005B030BD00212046FFF7B4FFF8E770B5F5
:102E080005460B68D31A012B03DC002000232B6036
:102E180070BD0C4616460846FFF790FF68602368A9
:102E28001844B04203D8AB6020600120EEE70020D0
:102E3800ECE700B585B004AB03E9070020B105F065
:102E4800F1FE05B05DF804FB0298FAE770B582B0B0
:102E580005460E4614460023019301219047012898
:102E680016D101A92046FFF728FF0199681CFFF732
:102E780001FF013001990B18B3420CDC21B1284441
:102E8800A047019B984209D12878000902B070BD7B
:102E98004FF0FF30FAE74FF0FF30F7E74FF0FF3021
:102EA800F4E710B584B004460DF1040C8CE80E006C
:102EB8009CE80700FFF7BDFF831C06981844002C08
:102EC80000DD023004B010BD2DE9F04784B006469D
:102ED8000F4690461C46DDF848900390CDF80090C8
:102EE8000EAB0ECB2046FFF7DCFF8246FFF706FF4E
:102EF800B8422FDC0025032363F3071568F3C305E5
:102F080064F342059DF8303063F30005E9B203A885
:102F1800FFF722FF51460398FFF7ACFE039B0344DB
:102F280003930EAB0ECB03A8FFF747FF002C0BDC77
:102F38004A4611990398FDF7DFFB039A4A44039226
:102F4800901B04B0BDE8F087BDF8341003A8FFF764
:102F580009FFEDE76FF00100F3E710B582B0044612
:102F6800019003291EDD002062F3071063F3C300FC
:102F7800062A14BF0022012262F34200C1B201A84E
:102F8800FFF7EAFE02210198FFF774FE019B034454
:102F98000193BDF8101001A8FFF7E4FE0198001B8B
:102FA80002B010BD6FF00100FAE700B583B00092DF
:102FB80000230422FFF7D1FF03B05DF804FB00B53E
:102FC80083B0009200230522FFF7C7FF03B05DF826
:102FD80004FB00B583B0009313460622FFF7BDFF3C
:102FE80003B05DF804FB00B583B00092002307220C
:102FF800FFF7B3FF03B05DF804FBF8B506460F46CC
:10300800022500240AE004EB440307EB830393E85A
:103018000700FFF70EFF033005440134B442F2DB2A
:103028002846F8BD2DE9F04F85B0074689469246F7
:1030380001930E9C0F9D109E039029462046FFF792
:10304800DCFF8346FFF75AFE484532DC4FF00008A4
:10305800082363F307186AF3C308012363F34208DC
:103068005FFA88F103A8FFF777FE59460398FFF740
:1030780001FE039B03440393019903A8FFF772FE23
:103088004FF000080EE008EB480305EB83030ECB76
:1030980003A8FFF792FE16F8281003A8FFF75CFEB6
:1030A80008F10108A045EEDB0398C01B05B0BDE898
:1030B800F08F6FF00100F9E782B00E4B9A6942F089
:1030C80001029A619A6902F001020092009ADA6993
:1030D80042F08052DA61DB6903F080530193019B6F
:1030E800054A536823F0E06343F00073536002B06D
:1030F800704700BF0010024000000140FEE7FEE7F5
:10310800FEE7FEE7FEE770477047704708B502F034
:1031180059FB08BD08B5012003F044F908BD0000BB
:1031280008B5024802F0A0FE08BD00BFC83700205D
:1031380008B5024802F098FE08BD00BF8437002099
:1031480008B5024803F016FE08BD00BFD8350020B8
:1031580008B5024804F034FC08BD00BF5038002010
:1031680008B5024804F02CFC08BD00BF94380020C4
:1031780008B5024803F0FEFD08BD00BF2036002058
:1031880008B5024803F0F6FD08BD00BF6836002008
:1031980008B5024803F0EEFD08BD00BFB0360020B8
:1031A80008B5024802F060FE08BD00BF40370020A5
:1031B8000120704708B504F07DFD162303604FF029
:1031C800FF3008BD08B54FF0FF31FFF7F3FFFEE70A
:1031D80070B50C461646002506E0AFF30080214680
:1031E80001F8010B01350C46B542F6DB304670BDDF
:1031F80070B50C461646002504E014F8010B00F0E3
:10320800C5FB0135B542F8DB304670BD08B503464D
:103218000B4A126842B10A4A106803446A4693424C
:1032280006D8074A136008BD054A06491160F2E747
:1032380004F040FD0C2303604FF0FF30F3E700BFBC
:10324800FC340020B05000204FF0FF3070474FF49E
:1032580000534B60002070470120704700207047E2
:103268007047000000B587B00023029303930493CE
:103278000593009301931648164A026041F61F42CF
:103288004260836047F22F52C260036143618361E9
:1032980003F07AFE90B94FF48053029302A90C48C8
:1032A80003F0CBFF68B900230093019369460848EF
:1032B80004F000F940B907B05DF804FBFFF704FB20
:1032C800E9E7FFF701FBEEE7FFF7FEFAF3E700BFD8
:1032D80000350020002C014000B587B00023029380
:1032E800039304930593009301931548154A0260CC
:1032F80041F61F42426083606322C26003618361BA
:1033080003F042FE90B94FF48053029302A90C488F
:1033180003F093FF68B900230093019369460848B6
:1033280004F0C8F840B907B05DF804FBFFF7CCFA21
:10333800E9E7FFF7C9FAEEE7FFF7C6FAF3E700BFD8
:1033480020360020000C004000B583B00023009315
:1033580001931048104A026041F61F4242608360A0
:1033680042F21073C3608023836103F00DFE50B9ED
:103378000023009301936946064804F09BF828B996
:1033880003B05DF804FBFFF79FFAF1E7FFF79CFA3B
:10339800F6E700BF683600200010004000B583B093
:1033A8000023009301931048104A026041F61F421F
:1033B8004260836042F21073C3608023836103F02C
:1033C800E3FD50B90023009301936946064804F0D1
:1033D80071F828B903B05DF804FBFFF775FAF1E757
:1033E800FFF772FAF6E700BFB0360020001400407D
:1033F80000B589B00368424A93421CD0B3F1804FAC
:1034080026D0404A93422FD03F4A93423FD03F4A6A
:1034180093424FD03E4A93425FD03E4A934214D1E2
:103428003D4B9A6942F400529A619B6903F4005338
:103438000793079B09E0384B9A6942F400629A6146
:103448009B6903F400630193019B09B05DF804FBD9
:1034580003F50433DA6942F00102DA61DB6903F04B
:1034680001030293029BF0E72B4BDA6942F0040256
:10347800DA61DB6903F004030393039B002211461E
:103488001E2002F025FB1E2002F05AFBDDE7224B2E
:10349800DA6942F00802DA61DB6903F00803049391
:1034A800049B00221146322002F012FB322002F067
:1034B80047FBCAE7184BDA6942F01002DA61DB69A8
:1034C80003F010030593059B00221146362002F0F5
:1034D800FFFA362002F034FBB7E70F4BDA6942F007
:1034E8002002DA61DB6903F020030693069B0022C1
:1034F8001146372002F0ECFA372002F021FBA4E74E
:10350800002C014000080040000C00400010004062
:103518000014004000340140001002400268094BCA
:103528009A4200D0704782B003F50333DA6942F05B
:103538000202DA61DB6903F002030193019B02B026
:10354800704700BF0004004000B589B00023049311
:103558000593069307930368B3F1804F0BD02F4A66
:1035680093421CD02E4A93422DD02E4A93423FD0EC
:1035780009B05DF804FB03F504339A6942F00402CC
:103588009A619B6903F004030093009B0223049350
:103598000593079304A9244802F0DCFDE8E7234BD0
:1035A8009A6942F004029A619B6903F0040301934B
:1035B800019BC023049302230593079304A91A4887
:1035C80002F0C8FDD4E7194B9A6942F008029A61E3
:1035D8009B6903F008030293029B4FF470730493F2
:1035E80002230593079304A9114802F0B3FDBFE72E
:1035F8000E4B9A6942F010029A619B6903F010031E
:103608000393039B4FF4707304930223059307936A
:1036180004A9084802F09EFDAAE700BF0004004084
:10362800000800400034014000080140001002403A
:10363800000C01400010014000B58FB000230A9330
:103648000B930C930D93089309930193029303939F
:10365800049305930693079321484FF08042026034
:1036680047224260836041F28732C260036183610E
:1036780003F08AFC28BB4FF480530A930AA9184820
:1036880003F0DBFD00BB164803F0AAFCF8B90023E1
:103698000893099308A9124803F00CFFD0B9002336
:1036A800019302930393059304220DEB02010C4846
:1036B80003F026FD88B90A48FFF746FF0FB05DF80A
:1036C80004FBFFF701F9D6E7FFF7FEF8DBE7FFF7A2
:1036D800FBF8DCE7FFF7F8F8E1E7FFF7F5F8EAE7CA
:1036E8004835002000B58BB0002308930993019357
:1036F8000293039304930593069307931E481F4A66
:10370800026047224260836041F28732C2600361EF
:10371800836103F091FC18BB00230893099308A95F
:10372800154803F0C7FEF0B96023019340F2F31384
:10373800029300220392059201A90F4803F009FDA4
:10374800A0B96323029304220DEB02010A4803F097
:1037580000FD70B90848FFF7F7FE0BB05DF804FBF1
:10376800FFF7B2F8D8E7FFF7AFF8DDE7FFF7ACF8F7
:10377800E7E7FFF7A9F8EDE79035002000040040DF
:1037880000B58FB000230A930B930C930D93089305
:103798000993019302930393049305930693079364
:1037A8003048314A026041F61F424260836063221A
:1037B800C2600361836103F0E7FB002839D14FF44D
:1037C80080530A930AA9274803F037FD002833D10C
:1037D800244803F031FC002831D1002308930993D1
:1037E80008A9204803F066FE60BB6023019300220D
:1037F80002920392059201A91A4803F0AAFC20BB81
:1038080004220DEB0201174803F0A3FC00BB0822B9
:1038180001A9144803F09DFCE8B90C2201A911483C
:1038280003F097FCD0B90F48FFF78EFE0FB05DF894
:1038380004FBFFF749F8C2E7FFF746F8C8E7FFF7C8
:1038480043F8CAE7FFF740F8CFE7FFF73DF8D7E7B7
:10385800FFF73AF8DBE7FFF737F8DEE7FFF734F86A
:10386800E1E700BFD83500200008004010B596B049
:103878000024129413941494159410941194099498
:103888000A940B940C940D940E940F9420222146C4
:1038980001A804F029FD3B483B4B036041F61F4358
:1038A800436084606323C36004614461846103F0FE
:1038B8006BFB00284BD14FF48053129312A9314867
:1038C80003F0BBFC002845D12E4803F0B5FB0028C7
:1038D80043D100231093119310A92A4803F0EAFD5D
:1038E80000283DD16023099300220A920B920C9282
:1038F8000D920E920F9209A9224803F02AFC002883
:1039080031D1042209A91F4803F023FC70BB082207
:1039180009A91C4803F01DFC58BB0C2209A9194829
:1039280003F017FC40BB0023019302930393049315
:1039380005934FF400520692089301A9114803F029
:10394800F7FDE0B90F48FFF7FFFD16B010BDFEF711
:10395800BBFFB0E7FEF7B8FFB6E7FEF7B5FFB8E77D
:10396800FEF7B2FFBEE7FEF7AFFFCAE7FEF7ACFF10
:10397800CDE7FEF7A9FFD0E7FEF7A6FFD3E7FEF7EE
:10398800A3FFDFE7F83600200034014000B583B01C
:1039980001904FF6FF73012201A9034803F0F5FED9
:1039A800019803B05DF804FB0C38002008B50A48FC
:1039B8000A4B03604FF4E133436000238360C36024
:1039C80003610C2242618361C36103F0AFFE00B959
:1039D80008BDFEF779FFFBE7D8380020004C00400F
:1039E80008B50E4B1868002302221946806804F0B7
:1039F8004DFF0B480B4B03604FF4E133436000234A
:103A08008360C36003610C2242618361C36103F078
:103A18008DFE00B908BDFEF757FFFBE73000002018
:103A28000C3800200038014008B50A480A4B0360EA
:103A38004FF4E133436000238360C36003610C22C9
:103A480042618361C36103F071FE00B908BDFEF7EE
:103A58003BFFFBE7503800200044004008B50A4807
:103A68000A4B03604FF41653436000238360C3601E
:103A780003610C2242618361C36103F057FE00B900
:103A880008BDFEF721FFFBE79438002000480040FE
:103A980070B58CB004460023089309930A930B93DE
:103AA8000368804A93420BD07F4A934246D07F4AAC
:103AB80093426DD07E4A934200F0AE800CB070BD48
:103AC8007C4BDA6942F40022DA61DA6902F40022F6
:103AD8000092009A9A6942F010029A619B6903F079
:103AE80010030193019B4FF4806308930223099309
:103AF80003230B93704E08A9304602F02BFB4FF4BA
:103B080000630893002509950A9508A9304602F034
:103B180021FB6A486A4B0360456085608023C36067
:103B2800056145618561C56102F042F818B9634BCA
:103B3800A3635C62C2E7FEF7C7FEF8E75D4B9A69CC
:103B480042F480429A619A6902F480420292029A8F
:103B58009A6942F004029A619B6903F00403039393
:103B6800039B4FF4007308930223099303230B93D9
:103B7800544C08A9204602F0EDFA4FF480630893EC
:103B8800002309930A9308A9204602F0E3FA95E76F
:103B9800484BDA6942F40032DA61DA6902F4003239
:103BA8000492049A9A6942F004029A619B6903F0AC
:103BB80004030593059B0423089302230993032315
:103BC8000B93404E08A9304602F0C4FA0823089324
:103BD800002509950A9508A9304602F0BBFA3A482B
:103BE8003A4B0360456085608023C3600561456189
:103BF8008561C56101F0DCFF58B9334BA3635C6292
:103C080000221146262001F063FF262001F098FFCC
:103C180054E7FEF759FEF0E7264BDA6942F48022B2
:103C2800DA61DA6902F480220692069A9A6942F009
:103C380008029A619B6903F008030793079B4FF4F6
:103C4800806308930223099303230B93204E08A94A
:103C5800304602F07FFA4FF4006308930025099577
:103C68000A9508A9304602F075FA1A481A4B0360FB
:103C7800456085608023C360056145618561C561D4
:103C880001F096FF58B9134BA3635C6200221146FA
:103C9800272001F01DFF272001F052FF0EE7FEF755
:103CA80013FEF0E7004C004000380140004400409B
:103CB800004800400010024000100140403700203A
:103CC8003004024000080140843700206C000240A4
:103CD800000C0140C83700203000024000B587B012
:103CE8000849D1F8E8270392D1F8EC370493D1F8C2
:103CF800F017059100910449044804F09FFE07B0AD
:103D08005DF804FB00F0FF1F4C3E01081C39002041
:103D1800F0B5304B1A6A304B1B689A4254D00120D8
:103D28002C4B5A6A2C4B5B689A4200D00120294BD5
:103D38009A6A294B9B689A4200D00120254B5B6800
:103D4800264A5768BB4200D00120224B1B78234AE1
:103D58001678B34200D001201E4BDB681F4AD56895
:103D6800AB4200D001201B4B1B7A1C4A92F808E09A
:103D7800734500D00120174B5B69184A5469A34268
:103D880000D00120134B1B7C144A92F810C06345E5
:103D980000D001200F4BDB69104AD1698B4200D05B
:103DA80001200C4B1B7E0D4A127E93420ED001203F
:103DB800084B5F601E70DD6083F808E05C6183F883
:103DC80010C0D9611A76F0BD0020A9E70028FAD002
:103DD800EEE700BF5039002050500020383E002048
:103DE80070B5FEB0002101914FF4F87202A804F0FA
:103DF8007BFAFEF7CBF906464F4A5049FEF73AFCE4
:103E080000224F4B4F493046FEF7FEFBFEF7BEF946
:103E180004464D4D2868FCF745FB02460B464B49C6
:103E28002046FEF7F1FB6868FCF73CFB02460B46B0
:103E380047492046FEF7E8FBA868FCF733FB024633
:103E48000B4644492046FEF7DFFBFEF795F9054689
:103E58002146FEF74DF92A463F493046FEF74CF910
:103E6800FEF794F904463D4D2878FCF71BFB024603
:103E78000B463B492046FEF7C7FB6868FCF712FB78
:103E880002460B4637492046FEF7BEFB287AFCF768
:103E980009FB02460B4634492046FEF7B5FBE868A5
:103EA800FCF700FB02460B4630492046FEF7ACFB08
:103EB800287CFCF7F7FA02460B462D492046FEF708
:103EC800A3FB6869FCF7EEFA02460B46294920462F
:103ED800FEF79AFB287EFCF7E5FA02460B462649D0
:103EE8002046FEF791FBE869FCF7DCFA02460B4630
:103EF80022492046FEF788FBFEF73EF90546214693
:103F0800FEF7F6F82A461E493046FEF7F5F8304621
:103F1800FEF7CEF8014601A804F026FE3046FEF76B
:103F280059F901A804F07EFE022281B201A801F02D
:103F3800BDF97EB070BD00BF1C390020543E010899
:103F480000405A405C3E010850500020B43E010831
:103F5800643E0108683E01086C3E0108383E0020B6
:103F6800703E0108783E0108803E0108883E01083D
:103F7800903E0108983E0108A03E0108A83E0108AD
:103F8800B03E010808B5074B1B7803B908BDFFF719
:103F9800BFFE0028FAD0FFF723FF034801F074FAA8
:103FA800F4E700BF544C0020B83E010830B599B082
:103FB800104B0A930AAD0DF12C0C0F4C0FCCACE84A
:103FC8000F002368ACF80030EC460DF1380EBEE85F
:103FD8000F00ACE80F00BEE80F00ACE80F009EE849
:103FE80003008CE8030095E80F00FEF743FC19B0C6
:103FF80030BD00BF8D3F0008C83E010810B5FFF76F
:10400800D5FF084B084A03F1200407CA84E80700D3
:104018009C46064C0FCCACE80F0094E80F008CE8E7
:104028000F0010BD5039002050500020383E0020AD
:1040380008B50949094804F0F1FF08B9002008BD8E
:10404800074801F021FA074801F068FA01F04AFB35
:1040580000F05CFB0120F2E7DC3E0108644C002024
:10406800F83E0108103F010810B598B00F4B0A93AD
:104078000AAC0F4A0BAB07CA03C323F8022B120C76
:104088001A70EC460DF1380EBEE80F00ACE80F00D0
:10409800BEE80F00ACE80F009EE803008CE80300C0
:1040A80094E80F00FEF7E6FB18B010BDA543000822
:1040B800183F010870B50D4C2268136823F00103FE
:1040C800136023684FF47A755D60094E2A463146BD
:1040D800084803F0B3FD2A460021304604F004F9ED
:1040E8002268136843F00103136070BD8437002011
:1040F800803900205038002070B505461A4E4FF41C
:104108007A720021304604F0EFF8002446F8044C97
:1041180012E0164AD15C164A1A4411710133B342AF
:10412800F7D3114C2146134801F0AEF9FFF7C2FF4F
:1041380044F8046C16E00134AC4212D20E4B1B68F2
:104148005A68B2F57A7FF6D25E68142000F0D4FA85
:10415800094B1B685B68B342EDD1C6F57A7600233C
:10416800DDE70026304670BD644C00208039002011
:10417800604C0020243F01088437002008B501F076
:10418800A7F94FF4FA7000F0B7FA0220FFF7B4FF6E
:104198000A490B4804F042FF08B1012008BD09484C
:1041A80001F096F9084801F0DDF94FF4FA6000F0E3
:1041B800A3FAFFF77FFF0020F0E700BF303F0108B8
:1041C800644C0020343F0108403F010808B500F066
:1041D800C1FA00B908BD1A4801F07AF9642000F064
:1041E8008BFA0220FFF788FF1649174804F016FFDC
:1041F800E0B11648FFF7C2FF0028EBD01448FFF7DC
:10420800BDFF0028E6D01348FFF7B8FF0028E1D02B
:10421800114801F039F9114801F036F901F056FA60
:104228000F4801F09FF900F09BFAD3E70D4801F021
:104238004FF9C82000F060FAFFF73CFFD9E700BF4C
:104248004C3F0108303F0108644C0020583F0108EA
:10425800683F01087C3F0108903F0108A03F010822
:10426800103F0108543F01083C4B1B7803B17047CD
:1042780010B590B03A4801F02BF94FF4FA7000F0FD
:104288003BFA0220FFF738FF3649374804F0C6FEEC
:10429800F8B1364801F0F8F8354801F019F94FF44B
:1042A800FA7000F029FA0220FFF726FF2D492E4860
:1042B80004F0B4FE20B32F492B4804F0AFFEF8B148
:1042C8002D4A13780133DBB213700A2B0BD810B0C8
:1042D80010BD2A4801F0FCF84FF47A7000F00CFA8F
:1042E800FFF7E8FED5E7134600221A70244801F0CC
:1042F800EFF84FF47A7000F0FFF9FFF7DBFEE6E71E
:104308002048FFF73BFF0028E1D01F48FFF736FFA2
:104318000028DCD01D4A1E4901A804F08FFB01A823
:10432800FFF72CFF0028D2D00C4B01221A7014483A
:1043380001F0CEF84FF4FA7000F0DEF9FFF7BAFE9C
:1043480001F0D0F9134801F09FF8134C204601F012
:10435800BFF8204601F006F9B9E700BF683D002024
:104368004C3F0108303F0108644C0020B43F01086D
:10437800C43F0108D43F01087C390020543F01089C
:10438800343F0108DC3F0108683F0108F03F01089D
:1043980000400108284001084440010808B5FFF71B
:1043A80015FFFFF761FF08BD08B5FFF783FEFFF7AC
:1043B8005BFE08BD002966D010B50446334904F0F9
:1043C8002DFE20BB3249204604F028FE30BB31497F
:1043D800204604F023FE40BB2F49204604F01EFE71
:1043E80050BB2E49204604F019FE60BB2C492046DC
:1043F80004F014FE80BB2B49204604F00FFEA0BB3E
:104408002949204604F00AFEB0BB002005E01F48F9
:1044180001F0A8F800F02EFB012010BD1C4801F0A7
:10442800A1F800F031FB0120F7E71A4801F09AF8EB
:1044380000F036FB0120F0E71C4801F093F800F08B
:1044480051FB0120E9E7154801F08CF864210120AF
:1044580000F01CFA0120E0E7114801F083F832214E
:10446800012000F013FA0120D7E70E4801F07AF88E
:1044780000F016FB0120D0E70B4801F073F800F0BC
:1044880031FB0120C9E70020704700BF50400108F8
:1044980058400108604001086C4001087C40010850
:1044A80080400108844001088840010874400108E0
:1044B80070B50D4C2268136823F00103136023685C
:1044C800C8255D60094E2A463146094803F0B6FB07
:1044D8002A460021304603F007FF2268136843F09C
:1044E8000103136070BD00BF403700206C3D002001
:1044F800D838002070B5134B1B685C68C72C02D9EC
:104508000024204670BD06460D465C681E2000F05B
:10451800F3F80C4B1B685B68A34201D00024F0E75A
:104528002A460021304603F0DFFEC4F1C804002308
:1045380003E0054AD25CF2540133A342F9D3FFF7F2
:10454800B7FFDEE7403700206C3D002008B501F0DA
:1045580009F8012008BD000010B50D4C2078FFF7C0
:10456800F5FF6068FFF7F2FF207AFFF7EFFFE068DA
:10457800FFF7ECFF207CFFF7E9FF6069FFF7E6FF34
:10458800207EFFF7E3FFE069FFF7E0FF10BD00BF03
:10459800383E002010B5B2B0C82422460021684633
:1045A80003F0A2FE21466846FFF7A4FF08B932B01F
:1045B80010BD01460A4B1B7833B9094B01221A700A
:1045C800084800F0CFFFF2E76846FFF7F3FE6846B9
:1045D80000F05AFF044800F057FFFFF7BDFFE6E779
:1045E800693D00208C4001089840010810B598B03A
:1045F8000E4B0A930AAC0E4A0BAB07CA03C31A70D8
:10460800EC460DF1380EBEE80F00ACE80F00BEE82E
:104618000F00ACE80F009EE803008CE8030094E864
:104628000F00FEF727F918B010BD00BF3D4600087F
:10463800A840010808B5FFF7ADFFFFF7D7FF08BD91
:1046480008B5FFF735FFFFF7D1FF08BD014B28225A
:104658001A8070472400002000B583B0C023ADF84D
:1046680004304FF47A73022201A9034803F08DF84D
:1046780003B05DF804FB00BF5038002008B5104AAD
:1046880013889BB2013B9BB2138013889BB23BB14A
:104698000C4A13780133DBB213701E2B09D808BDFE
:1046A800134628221A8000F0CDFB074803F07AFE53
:1046B800EEE7134600221A70FFF7CEFFEFE700BFC0
:1046C80024000020343E0020B440010808B5054805
:1046D80003686FF001021A6100225A6202F0F0FAD0
:1046E80008BD00BFB036002008B5024802F024FB20
:1046F80008BD00BFB036002042F6E06303FB00F0BF
:1047080000E001380028FCD17047000072B6024B67
:10471800024ADA60FEE700BF00ED00E00400FA0597
:1047280008B5FFF7DBFA00F04FF800F05BF800F08F
:1047380067F800F073F8FFF783FFFFF735FE00F026
:10474800ADFF00F06BFF00F0ADFD00F0C5FAFFF71C
:1047580055FC08BD014B1878704700BF353E002056
:10476800014B00221A707047353E002008B5084BEF
:104778001B781BB1074802F0DFFA08BD044B012281
:104788001A704FF47A721146104600F04BFFF1E7A9
:10479800353E00204835002008B50121084801F0C1
:1047A800F9FD48B9074803686FF001021A61002251
:1047B8005A6202F085FA08BD024802F0BDFAFAE72B
:1047C800001001404835002010B5054C0021204656
:1047D80002F0B0FD0421204602F0ACFD10BD00BF80
:1047E800F836002010B5054C0821204602F0A2FD3D
:1047F8000C21204602F09EFD10BD00BFF8360020B7
:1048080010B5054C0021204602F094FD04212046F5
:1048180002F090FD10BD00BFD835002010B5054C42
:104828000821204602F086FD0C21204602F082FD78
:1048380010BD00BFD835002010B5054C002120461A
:1048480002F0F2FD0421204602F0EEFD10BD00BF8B
:10485800F836002010B5054C0021204602F0E4FD92
:104868000421204602F0E0FD10BD00BFD83500202D
:1048780010B5054C0821204602F0D6FD0C21204633
:1048880002F0D2FD10BD00BFD835002028B1064B7C
:104898001B68596300229A637047034B1B68002208
:1048A8005A639963704700BFF8360020024640B14A
:1048B800074B1B68D96300201864064B1A72D9602D
:1048C8007047034B1B680020D8631964F5E700BFE5
:1048D800F8360020383E0020024640B1074B1B68DE
:1048E800596300209863064B1A7459617047034B4B
:1048F8001B68002058639963F5E700BFD83500208E
:10490800383E0020024640B1074B1B68D96300209F
:104918001864064B1A76D9617047034B1B68002050
:10492800D8631964F5E700BFD8350020383E002069
:104938002DE9F84F0446444800F0A6FD43492046B7
:10494800FDF7D1FB002876D041492046FDF7CBFB87
:10495800002870D03F492046FDF7C5FB00286AD0E3
:104968003D492046FDF7BFFB002864D03B4920465F
:10497800FDF7B9FB00285ED039492046FDF7B3FBA7
:10498800002858D037492046FDF7ADFB002852D003
:1049980035492046FDF7A7FB00284CD02B49204677
:1049A800FDF7A1FBD0F814A029492046FDF79BFB91
:1049B800D0F814B027492046FDF795FBD0F81480AD
:1049C80025492046FDF78FFBD0F81490234920464F
:1049D800FDF789FB466922492046FDF784FB4769B4
:1049E80020492046FDF77FFB45691F492046FDF712
:1049F8007AFB44695946BAF1000018BF0120FFF755
:104A080045FF4946B8F1000018BF0120FFF74EFFE7
:104A18003946301E18BF0120FFF75EFF2146281EC9
:104A280018BF0120FFF76EFF104A13780133DBB27D
:104A380013700A2B01D8BDE8F88F134600221A70AC
:104A48000B4800F08FFDF6E7C4400108703E0108EE
:104A5800783E0108803E0108883E0108903E010822
:104A6800983E0108A03E0108A83E01082600002043
:104A7800D440010808B5FFF7A7FEFFF7B3FEFFF71C
:104A8800BFFEFFF7CBFE08BD08B5FFF7E3FEFFF753
:104A9800EFFEFFF7D1FE00210846FFF707FF08BD2C
:104AA80010B50F4C20786421003818BF0120FFF79B
:104AB800EDFE207A6421003818BF0120FFF7F6FECA
:104AC800207C6421003818BF0120FFF705FF207EF5
:104AD8006421003818BF0120FFF714FF10BD00BF84
:104AE800383E002010B50F4C20783221003818BF0E
:104AF8000120FFF7CBFE207A3221003818BF0120B1
:104B0800FFF7D4FE207C3221003818BF0120FFF7C0
:104B1800E3FE207E3221003818BF0120FFF7F2FEA5
:104B280010BD00BF383E00202DE9F041FDF766FDBD
:104B380068B380461749FDF7D6FA0646FDF739FBF4
:104B4800E0B13046FDF7BCFA0746002400E0013426
:104B5800BC4218D221463046FDF7BDFA0546FDF79E
:104B68001FFB0028F3D00C492869FBF73BFE0028FF
:104B7800EDD14046FDF72EFB012008E04046FDF749
:104B880029FB012003E04046FDF724FB0020BDE897
:104B9800F08100BF543E01081C39002038B5044696
:104BA800FFF7C2FF00B938BD2046FDF727FD0446D0
:104BB8000028F8D00B49FDF796FA45690A492046BE
:104BC800FDF791FA30B1ADB2022D07D02046FDF7BE
:104BD80001FBE8E72046FDF7FDFAE4E7FFF7A8FE4A
:104BE800F4E700BF5C3E0108DC40010838B500244A
:104BF80000E00134092C28DC224B4FF4B37202FB8D
:104C0800043393F86531002BF3D01E4B02FB0433B9
:104C180093F86331032BECD91A4D02FB0455B5F810
:104C28006011194803F0BEFB4FF47A73B5F85E21A2
:104C38002946164802F0A9FD002385F8633195F846
:104C48006231013385F86231D3E7002300E0013394
:104C5800092B16DC0B4A4FF4B37101FB032292F8BF
:104C68006521002AF3D0074A01FB032292F862214A
:104C7800032AECD9034A01FB0322002182F86511BB
:104C8800E5E738BD583E0020E040010850380020D4
:104C980010B598B00E4B0A930AAC0BAB0D4A07CA75
:104CA80083E80700EC460DF1380EBEE80F00ACE8CB
:104CB8000F00BEE80F00ACE80F009EE803008CE888
:104CC800030094E80F00FDF7D5FD18B010BD00BF34
:104CD800F54B0008F840010808B5064803686FF06E
:104CE80001021A6100225A6201F0EAFFFFF7D0FFC1
:104CF80008BD00BF68360020002300E00133092BFF
:104D080011DC094A4FF4B37101FB032292F86521C3
:104D1800002AF3D0044A01FB032292F863110131FF
:104D280082F86311EAE77047583E0020F8B50D464F
:104D380016461F464FF0000CBCF1090F1EDC104C44
:104D48004FF4B37E0EFB0C4E9EF8654114B10CF186
:104D5800010CF1E774462A460146704603F0CEFF7F
:104D6800012384F86531A4F85E51A4F8607100232A
:104D780084F8623184F8633184F86461F8BD00BF57
:104D8800583E0020002300E00133092B0FDC084ABD
:104D98004FF4B37101FB0322B2F860218242F3D1D0
:104DA800034A01FB0322002182F86511ECE77047F2
:104DB800583E00207047000010B504460368B3F160
:104DC800804F0CD022680C4B9A420BD022680B4BB8
:104DD8009A420AD022680A4B9A4209D010BDFFF7BE
:104DE800C5FCEFE700F030FCF0E7FFF785FFF1E7DF
:104DF800FFF744FCF2E700BF000C00400010004041
:104E080000140040012800D0704708B5FFF7C4FC23
:104E180008BD00008446002009E0084B1A680244D7
:104E2800074B13441B790CF8013B01390130002969
:104E3800F3D1024A1368034413607047584C0020AA
:104E4800604C00200023024A1370024A1370704716
:104E5800544C00205C4C002070B5ADF5067D22ADA9
:104E6800002422946022214623A803F03DFA582208
:104E78002F490CA8FBF740FC09AA09940A940B9443
:104E880006AB06940794089403940494059400943C
:104E98000194029427490991274906911CAC07CA35
:104EA80084E807001FAC93E8070084E80700234E56
:104EB8000F96234B0393FDF769F9044632462149BF
:104EC800FDF7D8FB002200231F492046FDF79CFB75
:104ED8001E4A1F492046FDF7CDFB2046FDF7E8F89E
:104EE8000146284603F040FE009514B12046FDF720
:104EF80071F903AA15AB07CA83E807006A4618AB1D
:104F080007CA83E8070001238DF86D308DF84B3010
:104F18000CAA4FF496713BA8FDF798FD4FF47A73ED
:104F280082B23BA90B4802F030FC0DF5067D70BD3E
:104F3800803D010820410108284101081C39002052
:104F480030410108543E01085C3E01084441010813
:104F5800DC400108503800200A2A2DD8F0B5ADF5FC
:104F6800217D06460F4615467822002105A803F044
:104F7800BBF900240AE056F8241004EB440C05ABF6
:104F880043F82C100D4803F00DFA0134A542F2DC69
:104F9800029705AB0193009501230022F42123A871
:104FA800FEF740F84FF47A73C2B223A9044802F01E
:104FB800ECFB0DF5217DF0BD704700BF54410108A1
:104FC800503800203E4B1B78002B78D170B594B038
:104FD8003C4B1B785BB13B4B1B78DBB2012B20D0E1
:104FE800384B1B78DBB2022B4DD014B070BD36485D
:104FF80003F03AFAFFF778FBFFF72EFF4FF44870FB
:10500800FFF77AFB314A13780133DBB21370137858
:10501800DBB21E2BE9D9134600221A70FFF776FB84
:10502800E3E72B4C6D4604F1580393E8030085E849
:105038000300002104913C2205A803F055F904AEB1
:10504800244A2549304603F0F9FC009602AB603447
:1050580094E8030083E80300022219462846FFF774
:105068007BFF4FF4FA70FFF747FB184A13780133B8
:10507800DBB213701378DBB2032BB6D9002313709D
:10508800104A1370B1E700F069F94FF4FA70FFF7AE
:1050980033FB0C4B03221A70094B01221A70FFF7DD
:1050A80015FB0A4A13780133DBB213701378DBB2AD
:1050B800032B9AD900231370024A137095E770479F
:1050C800544C00205C4C00206C4101085D4C0020D1
:1050D800803D01081C3900208441010810B5ADF558
:1050E800026D0024089440F2FC72214609A803F0DE
:1050F800FBF8514B1C60514A4FF4006108A8FDF7BA
:10510800A5FE044601464E4803F04CF9023C0B2C20
:1051180010D8DFE804F0061C22314E6D0F120F0F75
:105128000F8E484803F0A0F9474B01221A70474BED
:1051380000221A700DF5026D10BD454803F094F970
:10514800414B02221A70414B00221A70F2E74FF4C9
:10515800006108A800F04CF9ECE74FF400630093F5
:1051680008AB02AA0DF10B0103A8FDF74AFDBDF833
:105178000800FFF707FEDDE74FF40064009408AB72
:1051880002AA0DF10B0103A8FDF73BFD2246002101
:1051980008A803F0A9F8BDF80820214608A8FDF7DB
:1051A8000EFF4FF47A7382B208A92A4802F0EDFA8A
:1051B800C0E74FF40064009408AB02AA0DF10B019C
:1051C80003A8FDF71EFD2246002108A803F08CF86D
:1051D800BDF808309DF80B20214608A8FDF7F9FE18
:1051E8004FF47A7382B208A91A4802F0CEFAA1E7FE
:1051F8004FF40064009408AB02AA0DF10B0103A858
:10520800FDF7FFFC2246002108A803F06DF8BDF861
:105218000820214608A8FDF7E6FE4FF47A7382B20B
:1052280008A90C4802F0B1FABDF80800FFF7AAFD7A
:1052380080E7FFF70BFA7DE7584C00201D4E000869
:1052480090410108A04101085C4C00205D4C002001
:10525800B84101085038002010B598B00F4B0A9398
:105268000AAC0F4A0BAB07CA03C323F8022B120C74
:105278001A70EC460DF1380EBEE80F00ACE80F00CE
:10528800BEE80F00ACE80F009EE803008CE80300BE
:1052980094E80F00FDF7EEFA18B010BDCD4F0008E6
:1052A800D041010808B5FFF7D7FF08BD2DE9F04147
:1052B800E4B007468846154609AC002609960A96C2
:1052C8000B961146204803F06DF8204909912048B3
:1052D80000F0DAF81F4B1B889BB2CDF818800597B1
:1052E8000DF1080C94E807008CE8070001930123EE
:1052F80000932B4632464FF4AF710CA8FDF7E4FD3E
:1053080084B24FF47A7322460CA9134802F03DFA8E
:105318008DB9104A13889BB201339BB2138013884E
:105328009BB24FF6DE72934202D90A4B01221A80D1
:1053380064B0BDE8F081074B1B889BB22A46214622
:105348000CA8FFF7F3FCE4E7DC410108F44101088D
:1053580008420108280000205038002030B5CDB0A0
:10536800002101914FF4947202A802F0BDFFFCF7EE
:105378000DFF0446194A1A49FDF77CF90022194B1A
:1053880019492046FDF740F9FCF7F6FE05460020CE
:105398000021FCF7BDFE01462846FCF7A9FE2A4677
:1053A80012492046FCF7A8FE2046FCF781FE01467C
:1053B80001A803F0D9FB14B12046FCF70BFF15B187
:1053C8002846FCF707FF01A803F02CFC002281B255
:1053D80001A8FFF76BFF4DB030BD00BF1C3900209E
:1053E800543E01080000F03F5C3E0108DC40010823
:1053F80030B599B004460D46002116910691242235
:1054080007A802F071FF0495039416AB029317AB3B
:10541800019310AB009313AB0DF14F0214A90DF1DA
:105428005700FDF7A5FB012801D019B030BD149B2A
:10543800012B09D0022B15D01799114800F024F838
:105448001798FFF7ABFBF0E7BDF84C20282106A81A
:10545800FDF7ABFD4FF47A7382B206A9094802F052
:1054680094F9E9E7BDF84C20282106A8FDF79DFD31
:105478004FF47A7382B206A9024802F086F9DBE794
:1054880024420108503800200FB410B5ADF57C7DDA
:10549800FEAB53F8042B01934FF47A7102A809F07C
:1054A800E1FC002407E06423012202A92144074803
:1054B80002F06BF9013402A803F0B4FBA042F2D861
:1054C8000DF57C7DBDE8104004B070470C38002015
:1054D8000FB410B5ADF57C7DFEAB53F8042B0193EA
:1054E8004FF47A7102A809F0BDFC002408E04FF4DB
:1054F800FA73012202A92144074802F046F901344F
:1055080002A803F08FFBA042F1D80DF57C7DBDE821
:10551800104004B0704700BF503800200FB410B5D9
:10552800ADF57C7DFEAB53F8042B01934FF47A71F3
:1055380002A809F097FC002407E06423012202A9CD
:105548002144074802F021F9013402A803F06AFB5C
:10555800A042F2D80DF57C7DBDE8104004B070473C
:10556800943800200FB410B5ADF57C7DFEAB53F830
:10557800042B01934FF47A7102A809F073FC0024FC
:1055880007E06423012202A92144074802F0FDF83C
:10559800013402A803F046FBA042F2D80DF57C7D49
:1055A800BDE8104004B07047D838002008B5012085
:1055B800FEF7A2FD054B1B6803B908BDFEF738FDD1
:1055C8000028FAD1FFF78AFDF7E700BF604C0020FA
:1055D80010B598B00F4B0A930AAC0F4B0DF12C0C79
:1055E8000FCBACE80700ACF80030EC460DF1380EF4
:1055F800BEE80F00ACE80F00BEE80F00ACE80F00F3
:105608009EE803008CE8030094E80F00FDF732F9E8
:1056180018B010BDB55500083C42010808B5FFF7A1
:10562800D7FF08BD054B1B689863054B1B6899633A
:105638005A63044B186059609A60704748350020D7
:10564800903500205050002008B5114B1B78A3B1AD
:10565800104B1B7893B1104A1368143313600E4B28
:10566800186841F2941398420DD010B9094B0122E1
:105678001A7002460146FFF7D5FF08BD064A1368AF
:10568800143B1360EBE7034B00221A70EDE700BFF1
:105698005C5000202A0000204C50002010B5094C16
:1056A8000021204601F046FE0421204601F042FE7A
:1056B8000021054801F03EFE002211461046FFF782
:1056C800B1FF10BD903500200035002008B5034813
:1056D80001F0F6FA024B01221A7008BD20360020AC
:1056E8005C50002010B50024054B1C70054801F0E3
:1056F80023FB224621462046FFF794FF10BD00BF3A
:105708005C500020203600200C480D490D4A00232B
:1057180002E0D458C4500433C4188C42F9D30A4A5E
:105728000A4C002301E013600432A242FBD3FDF7C8
:1057380097FD02F0C5FAFDF70DF97047000000204B
:10574800E4090020B0480108E4090020AC5000201A
:10575800FEE7000010B504460E4B18784FF47A7334
:10576800B3FBF0F30C4A1068B0FBF3F000F0F6F965
:1057780068B90F2C01D901200AE0002221464FF018
:10578800FF3000F0A5F9054B1C60002000E0012067
:1057980010BD00BF2B000020200000202C0000209E
:1057A80008B5074A136843F010031360032000F09C
:1057B8007DF90F20FFF7CEFFFDF77EFC002008BD26
:1057C80000200240034A1168034B1B780B44136006
:1057D800704700BF605000202B000020014B186864
:1057E800704700BF6050002030B482B000220192A0
:1057F80090F82420012A00F091800346012280F8C5
:1058080024204A68062A2DD80468606B02EB8202BD
:10581800053A4FF01F0C0CFA02FC20EA0C000D6848
:1058280005FA02F2024362630A68092A3AD91C6837
:10583800E06802EB42021E3A4FF0070C0CFA02FC39
:1058480020EA0C008D6805FA02F20243E2600A6859
:10585800103A012A36D90020002283F8242002B009
:1058680030BC70470C2A0ED80568286B02EB820200
:10587800233A1F24944020EA04000C6804FA02F238
:1058880002432A63D0E70568E86A02EB8202413ADC
:105898001F24944020EA04000C6804FA02F2024330
:1058A800EA62C1E71C68206902EB42024FF0070C6C
:1058B8000CFA02FC20EA0C008D6805FA02F2024399
:1058C8002261C4E71A681648824205D09A6A42F0F3
:1058D80020029A620120BFE7906810F4000F1BD1E4
:1058E800906840F4000090600A68102A01D00020F7
:1058F800B2E70C4A12680C49A1FB0212920C02EBA7
:1059080082025200019202E0019A013A0192019A40
:10591800002AF9D100209FE700209DE702209EE79A
:10592800002401402000002083DE1B4338B50368B3
:105938009A6812F0010F01D1002038BD04469A6818
:1059480022F001029A60FFF749FF054623689B6829
:1059580013F0010F13D0FFF741FF431B022BF5D9BA
:1059680023689B6813F0010FF0D0A36A43F010037B
:10597800A362E36A43F00103E3620120DDE700204C
:10598800DBE70000002800F0888070B50446836AD1
:10599800002B52D02046FFF7C9FFA36A13F010036B
:1059A80075D1002873D1A26A22F4885222F002022B
:1059B80042F00202A2626268266839498E4242D0E9
:1059C800E1690A43217B42EA4102A568B5F5807F77
:1059D80002D0012D3ED01D4694F814C0BCF1010F31
:1059E8003BD0716821F46941294371602568AE682C
:1059F8002C4931401143A960A168B1F5807F01D0DD
:105A0800012902D12369013B1B052568E96A21F4B4
:105A180070010B43EB6223689968234B0B409A4251
:105A28002CD0A36A23F0120343F01003A362E36AA5
:105A380043F00103E36201202EE0C36280F82430C2
:105A4800FBF730FCA6E7E169B1F5402FB9D14FF477
:105A58000021B6E74FF48075BEE731B9A169013975
:105A680045EA413141F40065BBE7A16A41F02001F4
:105A7800A162E16A41F00101E162B2E70023E36259
:105A8800A36A23F0030343F00103A36204E0A36ABB
:105A980043F01003A362012070BD0120704700BFCE
:105AA800003C0140FDF7E1FFFE0E1FFF074AD368E7
:105AB80023F4E0631B041B0C000200F4E0600343C2
:105AC80043F0BF6343F40033D360704700ED00E058
